:020000020000FC
:043000000C94B91E55
:043028000C94C31D24
:10302F0012010002FF010020EB03F32F0000010249
:10303F0000010902120001010080320904000000A2
:10304F00000000000C03410054004D0045004C00EF
:10305F002603410054006D00310036005500340046
:10306F0020004400460055002000560031002E007D
:10307F0030002E0032000403090419010C01000076
:06308F000C000001C03F2F
:1030960012BD01BDF89A00B5089501E00895F999A9
:1030A600FECF12BD01BD20BDFA9AF99AF6CFF99965
:1030B600FECF0C944B18F80104910895F801149171
:1030C6003196FACF0091610000930C0100E800935D
:1030D600610001E00093610005BF02E005BF0C94AA
:1030E6007D180091D70001600093D7000E94721EE0
:1030F60001E008950E94BA1D0E94C11DFDCF78D03F
:103106000F777BD078D074D0006177D0789408950B
:103116006CD076D009B500FFFDCFF89469D00F7D4D
:103126006CD05DD00091E000077F0093E0000E9424
:103136008D1B0091E20001600093E2000091E20025
:1031460008600093E200E2CF0091D90000FF0EC0B4
:1031560000910D01002351F401E000930D013AD0D6
:1031660002601183008347D0D3DF39D00091D900A4
:1031760000FD13C000910D01013079F400E00093C9
:103186000D010093220226D0046011830083009172
:10319600E00001600093E00028D0E3E2F2E0008165
:1031A600018100FF0DC0008111811E7F1183008304
:1031B60001E00093EA0000E00093EA000093220297
:1031C60000E00093E9000091E80003FF02C00E94BE
:1031D600021C0895E3E2F2E0008111810895009156
:1031E600E0000E7F0093E000089502D0006205C063
:1031F6000091D8000895FCDF00680093D800089578
:1032060000E00E949D1E24D000918100036000937F
:1032160081000091600007FFFCCF00E8009360008A
:1032260000E0009381000E94721E2091840030917C
:1032360085000ED02D3D354002B7007F02BF02B794
:103246000A6402BF10F002E101C002E009BD089560
:1032560000E00093810000938000009385000093B6
:10326600840001E006BB08950E94D91E239751D120
:10327600A0E0B1E04BD10093040148D100930501D1
:1032860055D100E000930901FD0104811581012B50
:1032960051F436D100910701002309F4B8C000E0CB
:1032A60000930701B4C056D102FFFDCF2FD106838C
:1032B6002DD100930F012AD10093100127D100933D
:1032C600110124D10093120121D10093130102852B
:1032D600309113014091120150911101209110017A
:1032E60016811A9541F01250A9F01A9591F11A9586
:1032F60009F472C08AC010910F01113011F411E067
:1033060001C010E0138798D00C3F11F412D17EC093
:1033160079D17CC091D010910F01112329F01A9513
:1033260049F01A95A1F072C010E013870C3F09F01E
:103336006DC0ECCF5CD103C050D109F467C054D145
:1033460049D10F3FC9F305E0009309015FC011E0C1
:10335600ECCFD2D029F00250E1F10A9541F056C0E7
:10336600FCD00E94CD1F0FEF00930A014FC022230D
:1033760019F02A9579F04AC05AD00DEF04BF6BD0E8
:10338600E9D003FFFDCF69D04CD045D000E00E94C4
:10339600831EFFCF4CD05FD0DDD003FFFDCF5DD0C5
:1033A6003AD03FD00FEF1FE004C009811A810150C7
:1033B600104009831A8309811A81012BB1F700E8AD
:1033C6000093610000910C01009361000C940000D1
:1033D600FFCF01E003871AC08FD019F00A9539F0A4
:1033E60015C0235098F4B9D002E000870FC02053CF
:1033F60039F02A9541F02F52B1F32A95A1F306C070
:1034060002E00883F0CF01E0FCCFA7D079D0239665
:10341600E4E00C94E61E0091D8000F770093D800E4
:10342600089509B50D7F09BD00E009BD089501E0C5
:1034360005BF00E005BF089521835083438332838F
:103446001091E8001B7F1093E8001091E8001F77A9
:103456001093E800089581D053C068D051D0F894F5
:103466000091E00001600093E0000895219751D09B
:10347600E0E0F1E04BD0048349D0058357D00681C4
:10348600035019F00250A1F00AC036D021F00A9577
:1034960051F00A9521F402850C3F19F44AD0219681
:1034A600089566D0FCCF01810093F10000810CC025
:1034B600EFE0F1E011810081002319F00A9549F04F
:1034C600EECF135018F400E00093F10019D03ED06F
:1034D600E6CF105339F01A9539F01F5241F01A957C
:1034E60041F0F4CF08E5F0CF00E00BD0EDCF02E0DD
:1034F600FCCF04E006D0E8CF00910F010023089529
:1035060020C010E020E030E00C943B1F0091F10059
:10351600089500D00091F10008830091F10008831E
:1035260008950091EB0000620093EB001ED0077F28
:1035360019C0F7DF02E00093080103E000930901D8
:1035460008955DD007D000FFFDCF089503D002FF98
:10355600FDCF03C00091E800089507D00B7F02D08D
:1035660004D00F770093E80008950091E8000895CD
:103576000E94D81EA0E0B1E0FD0139D006C02AD0D5
:103586000093F1002AD059F43AD0082F092BA1F064
:10359600E1DF02FD11C0DEDF00FFFDCF4424042D74
:1035A6004394003289F300910B0100231DD039F3B7
:1035B60011970E945A18E4CFCDDF00FFFDCF1FD030
:1035C600C9DF00FFFDCFC6DF02FFFDCFC6DFE5E0A6
:1035D6000C94E51E11970C945E1806D00F5F1F4FD2
:1035E6001C930E93019708950D911C910895828165
:1035F6009381FADF1197801B910B01960895B5DF31
:103606000E7FB0CF0E94D31EA0E0B1E04D905C903B
:1036160011976D907C9011970FE16022FD01048156
:10362600158100521040048315830AC000910B01D6
:10363600002331F4AC01940103E911E00E94651FF7
:1036460047D0B8F180E090E0420111C05FDFFC0195
:10365600ED56FE4F0083019601E0400E00E0501E3D
:103666000091F200002311F033D0B8F476DF30D0A9
:10367600E8F2FC01B096E238F040C0F66BDF02FFDC
:10368600FDCF0091F200FD0124813581201B3040E1
:1036960024833583E5CF3ADF6A946620E1F700910B
:1036A6000B01013099F62091F10082010E94521817
:1036B600D3CF04811581012B21F04CDF02FFFDCF12
:1036C6004CDF9DDF47DF00FFFDCFEAE00C94E01EF4
:1036D600FD01028113810415150508952091EB0063
:1036E60021602093EB000093EC000091ED00027046
:1036F600012B0093ED000091ED0002600093ED00B8
:103706001091EE00012F000F00E0001F08950093B6
:10371600E900089500E0FBDF0091EB0000FD05C025
:1037260000E0F5DF10E202E0D9CF00E008950F7760
:103736000132A9F5112369F11A9559F01A9561F02C
:103746001A9569F01A95F9F01A95C1F01A95D9F0FB
:1037560024C00E94371920C00E94391A1DC029D0E2
:103766000091090123D001E01FD020D0009108016B
:103776001BD00E94A41A0E94A91A0EC01AD000914A
:10378600080114D007C002E00093080100E000938E
:1037960009010FD00E94A41A03C00E94941A02C005
:1037A60001E0089500E0089501D000E00093F100E3
:1037B60008950091E800077F0093E800089503301C
:1037C600E9F4112329F01A9549F01A9589F016C0E3
:1037D60004E00093190205E810E305C00CE000932D
:1037E600190203E510E3E7E1F2E000831183D8CF85
:1037F60006E2009319020FE510E3F5CFD3CF9A93B3
:103806008A93E8D00B7FFAD08091F1009091F10075
:10381600092F992349F10A9509F1025011F1025035
:10382600A9F00A9549F0025069F00A9599F00A95AF
:10383600F1F00A9501F124C0803811F551D000232A
:1038460071F51EC08038E1F4C8D029C08823C1F4C0
:1038560029D025C08823A1F438D0F1CF082F2CD148
:10386600EECF082FFBD0EBCF082FCBD0E8CF813897
:1038760039F461D1E4CF813019F467D1002379F4AA
:103886008C010E949A1B002351F40091EB00006208
:103896000093EB009FD0077F4BD100931A028991CA
:1038A60099910895CFD00091E30000781F77012BFE
:1038B6000093E30012D0A0D0C8D000FFFDCF009146
:1038C600E30000680093E3000895BCD0123008F0CE
:1038D6003AC103D01093220229C17CD0077F8EC043
:1038E6000E94D91E229780E0ADD0E3D0202F2A95E2
:1038F60019F02A95C9F01CC068D02FE230E3208366
:103906003183D7D0D6D0D5D00883D3D00983E5DF8D
:103916002091190230E0488159812417350770F447
:103926002F7171F481E00CC050D021E430E3E7CF71
:103936000E94E21B002329F700E040C040931902D1
:103946002091E8002F7E03C02091E8002E7F20936F
:10395600E800209119022223F9F034D024FD1CC07E
:1039660031D020FD03C02ED024FFFACF30E0232F24
:103976003395203271F0A7E1B2E0ED91FC912591EB
:10398600FC93EE932093F100FD0122812A95228378
:1039960071F718D024FFD8CF813039F456D004FD02
:1039A60004C053D000FFFDCF27D04FD004FFFDCF7A
:1039B60011D00F7E23D00ED00B7FBAD02296E4E032
:1039C6000C94E61E2091E8000895E7E1F2E022E17A
:1039D600228308950091E80008957FDF0091220276
:1039E60009D0F8DF0F770AD030D002FFFDCF30D0F4
:1039F60005C000E00093F100EDDF0E7F0093E800C4
:103A0600089520D01FD02091F100005829F00A9582
:103A160069F00A9571F012C060DF009121020093EF
:103A2600F100E7DF12D002FFFDCF09C056DF00E04C
:103A3600F6CF53DF2F776ED00081F1CF84C008D048
:103A460077C037D01091F10008950091E8000895ED
:103A5600C1DF0B7FD3DFBEDF0F770895002319F098
:103A6600025019F001C025D06EC0EBDF0023E1F74C
:103A760020D00F7731F417D01091E800177F1093FC
:103A8600E8000093E9001091EB0010FD02C047D05A
:103A9600EBCF09D010E01093E90021E0F801E65ED3
:103AA600FD4F208340C01091EB0010621093EB0095
:103AB60008950091F1000895002319F0025019F0BD
:103AC60001C0F7DF40C0BDDF0023E1F72091F10020
:103AD6002F772093E9000091EB0000FD02C01FD074
:103AE600F1CFA1F00091EB0000610093EB00422FB3
:103AF60001E010E00E94CB1E0093EA0000E0009374
:103B0600EA000091EB0008600093EB0008D002D0B9
:103B1600008309C0F0E0E22FE65EFD4F089500E065
:103B26000093E900089556DF077F68DF53DF0E7FB5
:103B360065DF01E0089513D031F4CFDE5ADF85DF6B
:103B460002FFFDCF7CCF00E0089509D009F0FBCF3E
:103B5600C4DEE5DF51DF79DF00FFFDCFEACFA9DF65
:103B6600A8DF1091F1001091F10000230895009153
:103B7600D70001600093D7000C9482180C94A71804
:103B86008A93FA93EA933A922A921A920A927A932B
:103B96006A935A934A933A932A931A930A938FB73E
:103BA60088D002FF05C082D002FF02C00BEF7BD097
:103BB6000091DA0000FF02C00091D8007AD000FF21
:103BC6001BC074D000FF18C001E000930E016AD03C
:103BD60081D0006264D00EEF6FD0006177D06ED0D6
:103BE6000F7D74D00091D80000620093D80009B50B
:103BF6000D7F09BD00E009BD5CD004FF20C056D092
:103C060004FF1DC009B500FD05C00E94031909B5D2
:103C160000FFFDCF0091D8000F7D0093D80042D061
:103C260000910E01002359F04CD00FEE45D00F7EC7
:103C360050D0006434D042D0016048D042D039D050
:103C460005FF0FC033D005FF0CC000E000930E0146
:103C560035D00F7E3BD00FED2FD00F7D3AD00068C8
:103C66001ED027D003FF0AC021D003FF07C007EFED
:103C76001AD00E948D1B2ED0116011D08FBF0991D2
:103C8600199129913991499159916991799109909F
:103C9600199029903990E991F99189911895118394
:103CA600008308950FEE0093E10008950091E2006D
:103CB60008950091E10008950093E1000091E2006B
:103CC6000895FCDF006202D0F9DF08600093E2008D
:103CD6000895FCDFE3E2F2E00081118108950FB759
:103CE6000078102FF89407EF04BFA89508E1009319
:103CF600600000E000936000112309F078940895B5
:103D06001FB71078412FF89403FB1EF420E230E031
:103D160002C020E030E00770202B022F0860F894E4
:103D2600A89518E11093600000936000442309F001
:103D3600789408951FB71078412F03FB1EF420E2F4
:103D460030E002C020E030E00770202B022F006434
:103D5600F894A89518E1109360000093600044233E
:103D660009F07894089500008895FECF04E60DBF0B
:103D760002E00EBFC5EED2E00E947418002311F0D7
:103D86000E94FD1E0E9465180E94B61E0C94B61E67
:103D96004A951AF0000F111FFBCF0895BA92AA9206
:103DA6009A928A927A926A925A924A92BA93AA936B
:103DB6009A938A930895BB84AA84998488847F8081
:103DC6006E805D804C80BB81AA8199818881F0E0FC
:103DD600EC0FFD1FEF01089520E006D0E9F70895E6
:103DE600259102D0E9F708952D9301501040202F18
:103DF600212B089589E890E3FC0105911491FC01BB
:103E06003296A591B491FC01349625913491422FB6
:103E1600432B19F0F901E4DF01C0DEDF069610E35B
:103E26008539910748F308952F930CD02F9101D02F
:103E360008953CD0F12FE02F45E047BFE89536D0F6
:103E460012D0089533D0F12FE02F43E047BFE89515
:103E56002DD008952BD0F12FE02F43E047BFE895F2
:103E660025D001D0089522D041E147BFE8951EC074
:103E76001DD0F12FE02F41E247BFC895002D16C097
:103E860015D0F12FE02F49E047BFC895002D0EC091
:103E9600F32FE22F012E102E41E047BFE89506C012
:103EA60005D0002E29E027BFE89500C0022E27B7CF
:103EB60020FDFCCF202D0895022E27B726FDFCCF2E
:103EC600202D08950E94D11E22974801C901DA01CA
:103ED60010C05BD001E0A00E00E0B01E00E4A0160A
:103EE60000E0B00608F440C0830120E030E00E9404
:103EF6001C1F0A2F0B2B09F440C0082F0F7710E068
:103F06002C01401A510A320100E4A02E03C00A2FE8
:103F16000B2BE1F04816590680F0F40101914F0190
:103F26000983119729F001914F010883119711C058
:103F3600F2013196049108830CC0F20104910983C1
:103F46003196E817F907A1F7F401EDCF1BD00883E6
:103F560019839201088119810E944B1F16D0AA94D9
:103F6600B1F62301AA24BB240DD0312F0F3F3F4FBA
:103F760009F4AFCF83011DD0B7CF01E02296ECE064
:103F86000C94DE1E82010C94611802E0400E00E0E3
:103F9600501E08959A938A9380E090E08C0109D090
:103FA60080589F4F8F3F0FE29007C0F389919991F8
:103FB600089520E030E00C94251F0000000000006A
:063FC60000000000FC00F9
:103FE4000C94171F0C943B1F0C94431F0C944B1FF1
:0C3FF4000C941C1F0C942D1F0C94531FE8
:0400000300003000C9
:00000001FF
